:020000040000FA
:060000004CEF02F01200BB
:020006000000F8
:08000800D9CFE6FFE1CFD9FFDB
:10001000020EE126670EDE6EDD6A8F0ED3147009C4
:10002000D36EDF50AF6EAC84AC98AB8EAC8AAB882D
:10003000949C948E020EE15C02E2E16AE552E16E6C
:10004000E552E7CFD9FF12009496949A9488C78C12
:10005000C698F00EC6140109C66EC68A9590959290
:10006000959495969598959A959C959E8C808C8262
:100070008C848C868C888C8A8C8C8C8E1200D9CF48
:10008000E6FFE1CFD9FF8C808C828C848C868C88B3
:100090008C8A8C8C8C8EFE0EDB50070A1DE0010AC8
:1000A00019E0030A15E0010A11E0070A0DE0010A50
:1000B00009E0030A05E0010A01E010D08C900ED09F
:1000C0008C920CD08C940AD08C9608D08C9806D048
:1000D0008C9A04D08C9C02D08C9E00D0FD0EDB50FC
:1000E000C96EC7A0FED7FC0EDB50C96EC7A0FED7F5
:1000F000FB0EDB50C96EC7A0FED78C808C828C842F
:100100008C868C888C8A8C8C8C8EE552E7CFD9FFBC
:100110001200D9CFE6FFE1CFD9FFE652400EDF6EE5
:10012000E66AE66ADFCFE6FFE66AA9DFE552E55256
:10013000E552E552E66A010EE66EDFCFE6FFE66ABB
:100140009EDFE552E552E552E552E66AE66ADFCF08
:10015000E6FF010EE66E93DFE552E552E552E55209
:10016000E66A010EE66EDFCFE6FFE66E88DFE55257
:10017000E552E552E552E66AE66ADFCFE6FF020E97
:10018000E66E7DDFE552E552E552E552E66A010E84
:10019000E66EDFCFE6FF020EE66E71DFE552E55256
:1001A000E552E552E66AE66ADFCFE6FF030EE66E49
:1001B00066DFE552E552E552E552E66A010EE66E6B
:1001C000DFCFE6FF030EE66E5ADFE552E552E55259
:1001D000E552E66AE66ADFCFE6FF040EE66E4FDF21
:1001E000E552E552E552E552E66A010EE66EDFCFD2
:1001F000E6FF040EE66E43DFE552E552E552E552B6
:10020000E66AE66ADFCFE6FF050EE66E38DFE55206
:10021000E552E552E552E66A010EE66EDFCFE6FFF3
:10022000050EE66E2CDFE552E552E552E552E66A30
:10023000E66ADFCFE6FF060EE66E21DFE552E55205
:10024000E552E552E66A010EE66EDFCFE6FF060EE6
:10025000E66E15DFE552E552E552E552E66AE66ADA
:10026000DFCFE6FF070EE66E0ADFE552E552E55204
:10027000E552E66A010EE66EDFCFE6FF070EE66E98
:10028000FEDEE552E552E552E552E552E552E7CF92
:10029000D9FF1200D9CFE6FFE1CFD9FF9EA8FED744
:1002A000FE0EDB50AD6EE552E7CFD9FF12009EAADD
:1002B000FED703D8AE5000D01200D9CFE6FFE1CF71
:1002C000D9FFE652ABA202D0AB98AB88ABA402D068
:1002D000AE50DF6EE552E552E7CFD9FF1200D9CF1D
:1002E000E6FFE1CFD9FF130EE1268EDEADDE11DF92
:1002F000DEDF7E0801E0FCD7120EDB6A100EF36E23
:10030000120EDBCFF4FFF350F45C14E2D0DFE66EA4
:10031000D9CF02F0DACF03F0120EDB500F01022426
:10032000E96E000E0320EA6EE552E750EF6E120E02
:10033000DB2AE4D7BCDF7F0801E0FCD7120EDB6AC2
:10034000080EF36E120EDBCFF4FFF350F45C3AE2CA
:10035000D9CF02F0DACF03F0120EDB50E8240F0100
:100360000224E96E000E0320EA6EEF50E66E120ED4
:10037000E66E400EE66E120EDBCFE6FF80DEE55243
:10038000E552E552E552D9CF02F0DACF03F0120E72
:10039000DB50E824010F0F010224E96E000E032058
:1003A000EA6EEF50E66E130EE66E400EE66E120E2B
:1003B000DBCFE6FF64DEE552E552E552E552120E70
:1003C000DB2ABED795D7130EE15C02E2E16AE55263
:0A03D000E16EE552E7CFD9FF1200FD
:0603DA00060EF66E000E97
:1003E000F76E000EF86E00010900F550656F090008
:1003F000F550666F03E1656701D03DD00900F55007
:10040000606F0900F550616F0900F550626F0900D7
:100410000900F550E96E0900F550EA6E090009007F
:100420000900F550636F0900F550646F0900090079
:10043000F6CF67F0F7CF68F0F8CF69F060C0F6FF4D
:1004400061C0F7FF62C0F8FF0001635302E164532B
:1004500007E00900F550EE6E6307F8E26407F9D78C
:1004600067C0F6FF68C0F7FF69C0F8FF00016507C5
:08047000000E665BBFD712000D
:08047800000EF36E00EE00F02F
:10048000060E01D81200EA6002D0EE6AFCD7F350E3
:08049000E9601200EE6AFCD7DE
:0804980015EE00F025EE00F066
:1004A000F86A019CEDEC01F05AEC02F06FEC01F0FF
:0404B000FBD7120064
:0204B400120034
:00000001FF
